:020000040800F2
:10000000000004208D5C0008D15B0008DF5B000865
:10001000E55B0008EB5B0008F15B000800000000F6
:100020000000000000000000000000007156000801
:10003000F75B000800000000C1580008055C0008DC
:10004000DD5C0008DD5C0008DD5C0008DD5C0008AC
:10005000DD5C0008DD5C0008DD5C0008DD5C00089C
:10006000DD5C0008DD5C0008DD5C0008DD5C00088C
:10007000DD5C0008DD5C0008DD5C0008DD5C00087C
:10008000DD5C0008DD5C0008DD5C0008DD5C00086C
:10009000DD5C0008DD5C0008DD5C0008DD5C00085C
:1000A000DD5C0008DD5C0008DD5C0008DD5C00084C
:1000B000DD5C0008DD5C0008DD5C0008DD5C00083C
:1000C000DD5C0008DD5C0008DD5C0008DD5C00082C
:1000D000DD5C0008DD5C0008DD5C0008DD5C00081C
:1000E000DD5C0008DD5C0008DD5C0008DD5C00080C
:1000F000DD5C0008DD5C0008DD5C0008DD5C0008FC
:1001000000000000DD5C0008DD5C0008DD5C00082C
:100110000000000000000000DD5C0008DD5C00085D
:10012000DD5C0008DD5C0008DD5C0008DD5C0008CB
:10013000DD5C0008DD5C0008DD5C0008DD5C0008BB
:10014000DD5C0008DD5C0008DD5C0008DD5C0008AB
:10015000DD5C0008DD5C0008DD5C0008DD5C00089B
:10016000DD5C0008DD5C000800000000000000000D
:10017000000000000000000000000000000000007F
:10018000DD5C0008DD5C00080000000000000000ED
:10019000DD5C0008DD5C00080000000000000000DD
:1001A000000000000000000000000000000000004F
:1001B000DD5C00080000000000000000DD5C0008BD
:0401C000DD5C0008FA
:1001D00010B5054C237833B9044B13B10448AFF381
:1001E00000800123237010BDEC01002000000000FE
:1001F000008B000808B5034B1BB103490348AFF35C
:10020000008008BD00000000F0010020008B000805
:10021000034613F8012B002AFBD1181A0138704746
:1002200001F0FF01102A2BDB10F0070F08D010F8A7
:10023000013B013A8B422DD010F0070F42B3F6D1AB
:10024000F0B441EA012141EA014122F007047FF0C4
:1002500000070023F0E80256083C85EA010586EA1B
:10026000010685FA47F5A3FA87F586FA47F6A5FA57
:1002700087F68EB9EED1F0BC01F0FF0102F0070263
:1002800032B110F8013B013A83EA010313B1F8D10E
:100290000020704701387047002D06BF35460338EF
:1002A000073815F0010F07D1013015F4807F02BF28
:1002B000013015F4C03F0130F0BC0138704700BF79
:1002C00081F0004102E000BF83F0004330B54FEA07
:1002D00041044FEA430594EA050F08BF90EA020F74
:1002E0001FBF54EA000C55EA020C7FEA645C7FEA07
:1002F000655C00F0E2804FEA5454D4EB5555B8BF2A
:100300006D420CDD2C4480EA020281EA030382EA9A
:10031000000083EA010180EA020281EA0303362D2C
:1003200088BF30BD11F0004F4FEA01314FF4801CFF
:100330004CEA113102D0404261EB410113F0004F11
:100340004FEA03334CEA133302D0524263EB4303C8
:1003500094EA050F00F0A780A4F10104D5F1200E66
:100360000DDB02FA0EFC22FA05F2801841F10001C1
:1003700003FA0EF2801843FA05F359410EE0A5F195
:1003800020050EF1200E012A03FA0EFC28BF4CF0C6
:10039000020C43FA05F3C01851EBE37101F000457C
:1003A00007D54FF0000EDCF1000C7EEB00006EEB89
:1003B0000101B1F5801F1BD3B1F5001F0CD3490813
:1003C0005FEA30004FEA3C0C04F101044FEA44526A
:1003D00012F5800F80F09A80BCF1004F08BF5FEAF1
:1003E000500C50F1000041EB045141EA050130BDD1
:1003F0005FEA4C0C404141EB0101013C28BFB1F5E3
:10040000801FE9D291F0000F04BF01460020B1FA2D
:1004100081F308BF2033A3F10B03B3F120020CDA00
:100420000C3208DD02F1140CC2F10C0201FA0CF0DE
:1004300021FA02F10CE002F11402D8BFC2F1200C43
:1004400001FA02F120FA0CFCDCBF41EA0C019040F9
:10045000E41AA2BF01EB0451294330BD6FEA040442
:100460001F3C1CDA0C340EDC04F11404C4F120022D
:1004700020FA04F001FA02F340EA030021FA04F33F
:1004800045EA030130BDC4F10C04C4F1200220FA96
:1004900002F001FA04F340EA0300294630BD21FAD4
:1004A00004F0294630BD94F0000F83F4801306BF9A
:1004B00081F480110134013D4EE77FEA645C18BF8E
:1004C0007FEA655C29D094EA050F08BF90EA020F25
:1004D00005D054EA000C04BF1946104630BD91EA1D
:1004E000030F1EBF0021002030BD5FEA545C05D120
:1004F0004000494128BF41F0004130BD14F580045F
:100500003CBF01F5801130BD01F0004545F0FE41D2
:1005100041F470014FF0000030BD7FEA645C1ABF07
:10052000194610467FEA655C1CBF0B46024650EA3E
:10053000013406BF52EA033591EA030F41F400216A
:1005400030BD00BF90F0000F04BF0021704730B5F0
:100550004FF4806404F132044FF000054FF00001C5
:1005600050E700BF90F0000F04BF0021704730B586
:100570004FF4806404F1320410F0004548BF40425B
:100580004FF000013EE700BF42004FEAE2014FEAB0
:1005900031014FEA02701FBF12F07F4393F07F4F8B
:1005A00081F06051704732F07F4208BF704793F08E
:1005B0007F4F04BF41F40021704730B54FF46074A1
:1005C00001F0004521F000411CE700BF50EA0102A4
:1005D00008BF704730B54FF000050AE050EA01024D
:1005E00008BF704730B511F0004502D5404261EBBD
:1005F00041014FF4806404F132045FEA915C3FF4FE
:10060000D8AE4FF003025FEADC0C18BF03325FEA9A
:10061000DC0C18BF033202EBDC02C2F1200300FA4B
:1006200003FC20FA02F001FA03FE40EA0E0021FA70
:1006300002F11444BDE600BF70B54FF0FF0C4CF45E
:10064000E06C1CEA11541DBF1CEA135594EA0C0F10
:1006500095EA0C0F00F0DEF82C4481EA030621EA4B
:100660004C5123EA4C5350EA013518BF52EA033586
:1006700041F4801143F4801338D0A0FB02CE4FF038
:100680000005E1FB02E506F00042E0FB03E54FF068
:100690000006E1FB03569CF0000F18BF4EF0010E60
:1006A000A4F1FF04B6F5007F64F5407404D25FEA5C
:1006B0004E0E6D4146EB060642EAC62141EA55510F
:1006C0004FEAC52040EA5E504FEACE2EB4F1FD0C51
:1006D00088BFBCF5E06F1ED8BEF1004F08BF5FEACF
:1006E000500E50F1000041EB045170BD06F0004681
:1006F00046EA010140EA020081EA0301B4EB5C042E
:10070000C2BFD4EB0C0541EA045170BD41F4801125
:100710004FF0000E013C00F3AB8014F1360FDEBF4A
:10072000002001F0004170BDC4F10004203C35DA26
:100730000C341BDC04F11404C4F1200500FA05F3A9
:1007400020FA04F001FA05F240EA020001F000424A
:1007500021F0004110EBD37021FA04F642EB0601C0
:100760005EEA430E08BF20EAD37070BDC4F10C04EA
:10077000C4F1200500FA04F320FA05F001FA04F2AE
:1007800040EA020001F0004110EBD37041F100019A
:100790005EEA430E08BF20EAD37070BDC4F12005A5
:1007A00000FA05F24EEA020E20FA04F301FA05F20D
:1007B00043EA020321FA04F001F0004121FA04F2B5
:1007C00020EA020000EBD3705EEA430E08BF20EA85
:1007D000D37070BD94F0000F0FD101F000464000BF
:1007E00041EB010111F4801F08BF013CF7D041EA41
:1007F000060195F0000F18BF704703F00046520045
:1008000043EB030313F4801F08BF013DF7D043EA15
:100810000603704794EA0C0F0CEA135518BF95EACB
:100820000C0F0CD050EA410618BF52EA4306D1D152
:1008300081EA030101F000414FF0000070BD50EA71
:10084000410606BF1046194652EA430619D094EAFB
:100850000C0F02D150EA013613D195EA0C0F05D1E5
:1008600052EA03361CBF104619460AD181EA030139
:1008700001F0004141F0FE4141F470014FF00000F1
:1008800070BD41F0FE4141F4780170BD70B54FF08C
:10089000FF0C4CF4E06C1CEA11541DBF1CEA13550C
:1008A00094EA0C0F95EA0C0F00F0A7F8A4EB0504EE
:1008B00081EA030E52EA03354FEA013100F08880E5
:1008C0004FEA03334FF0805545EA131343EA1263AE
:1008D0004FEA022245EA111545EA10654FEA002663
:1008E0000EF000419D4208BF964244F1FD0404F51C
:1008F000407402D25B084FEA3202B61A65EB030578
:100900005B084FEA32024FF480104FF4002CB6EB34
:10091000020E75EB030E22BFB61A754640EA0C00B4
:100920005B084FEA3202B6EB020E75EB030E22BFF4
:10093000B61A754640EA5C005B084FEA3202B6EB35
:10094000020E75EB030E22BFB61A754640EA9C00F4
:100950005B084FEA3202B6EB020E75EB030E22BFC4
:10096000B61A754640EADC0055EA060E18D04FEA82
:10097000051545EA16754FEA06164FEAC30343EA22
:1009800052734FEAC2025FEA1C1CC0D111F4801FEF
:100990000BD141EA00014FF000004FF0004CB6E7E8
:1009A00011F4801F04BF01430020B4F1FD0C88BF87
:1009B000BCF5E06F3FF6AFAEB5EB030C04BFB6EB92
:1009C000020C5FEA500C50F1000041EB045170BD85
:1009D0000EF0004E4EEA113114EB5C04C2BFD4EBB2
:1009E0000C0541EA045170BD41F480114FF0000E36
:1009F000013C90E645EA060E8DE60CEA135594EAB2
:100A00000C0F08BF95EA0C0F3FF43BAF94EA0C0FB4
:100A10000AD150EA01347FF434AF95EA0C0F7FF429
:100A200025AF104619462CE795EA0C0F06D152EA7D
:100A300003353FF4FDAE1046194622E750EA410661
:100A400018BF52EA43067FF4C5AE50EA41047FF472
:100A50000DAF52EA43057FF4EBAE12E74FF0FF3CD7
:100A600006E000BF4FF0010C02E000BF4FF0010CA8
:100A70004DF804CD4FEA410C7FEA6C5C4FEA430C21
:100A800018BF7FEA6C5C1BD001B050EA410C0CBF70
:100A900052EA430C91EA030F02BF90EA020F0020D2
:100AA000704710F1000F91EA030F58BF994208BF39
:100AB00090422CBFD8176FEAE37040F001007047F6
:100AC0004FEA410C7FEA6C5C02D150EA013C07D14D
:100AD0004FEA430C7FEA6C5CD6D152EA033CD3D098
:100AE0005DF8040B704700BF8446104662468C4692
:100AF0001946634600E000BF01B5FFF7B7FF0028C5
:100B000048BF10F1000F01BD4DF808EDFFF7F4FFED
:100B10000CBF012000205DF808FB00BF4DF808ED78
:100B2000FFF7EAFF34BF012000205DF808FB00BF9B
:100B30004DF808EDFFF7E0FF94BF012000205DF8BD
:100B400008FB00BF4DF808EDFFF7CEFF94BF012072
:100B500000205DF808FB00BF4DF808EDFFF7C4FF6B
:100B600034BF012000205DF808FB00BF4FEA410CB4
:100B70007FEA6C5C02D150EA013C0AD14FEA430C97
:100B80007FEA6C5C02D152EA033C02D14FF00000D4
:100B900070474FF0010070474FEA410212F5001212
:100BA00015D211D56FF47873B3EB625212D94FEAB4
:100BB000C12343F0004343EA505311F0004F23FA9E
:100BC00002F018BF404270474FF00000704750EAF3
:100BD000013005D111F0004008BF6FF000407047B0
:100BE0004FF00000704700BF53B94AB9002908BF51
:100BF00000281CBF4FF0FF314FF0FF3000F06EB9FE
:100C0000ADF1080C6DE904CE00F006F8DDF804E063
:100C1000DDE9022304B070472DE9F047089D044642
:100C20008C46002B40F083808A42174647D9B2FA9F
:100C300082F242B1C2F1200024FA00F091409740C4
:100C400040EA010C94404FEA1748230CBCFBF8F62D
:100C50001FFA87FE08FB16C143EA014306FB0EF1AB
:100C6000994209D9FB1806F1FF3080F019819942A9
:100C700040F21681023E3B445B1AA4B2B3FBF8F08B
:100C800008FB103344EA034400FB0EFEA64509D9D5
:100C90003C1900F1FF3380F00581A64540F2028146
:100CA00002383C4440EA0640A4EB0E0400261DB185
:100CB000D4400023C5E900433146BDE8F08702B9BE
:100CC000FFDEB2FA82F2002A50D1CB1B4FEA174E58
:100CD0001FFA87F80126B3FBFEFC210C0EFB1C3328
:100CE00041EA034108FB0CF38B4207D979180CF158
:100CF000FF3002D28B4200F2E9808446C91AA3B2C7
:100D0000B1FBFEF00EFB101143EA014408FB00F8B2
:100D1000A04507D93C1900F1FF3302D2A04500F2EB
:100D2000D9801846A4EB080440EA0C40BFE78B4288
:100D300009D9002D00F0B1800026C5E90001304638
:100D40003146BDE8F087B3FA83F6002E4AD18B42D4
:100D500002D3824200F2B880841A61EB03010120C1
:100D60008C46002DA8D0C5E9004CA5E7C2F12003B0
:100D700020FA03F6974001FA02F04FEA174ED940E5
:100D80003043030CB1FBFEF61FFA87F80EFB161179
:100D900043EA014306FB08F1994204FA02F409D937
:100DA000FB1806F1FF3C80F08D80994240F28A806A
:100DB000023E3B445B1A81B2B3FBFEF00EFB1033E4
:100DC00041EA034100FB08F38B4207D9791800F18F
:100DD000FF3C73D28B4271D902383944CB1A40EAB6
:100DE000064678E7C6F1200C03FA06F422FA0CF363
:100DF0001C4320FA0CF701FA06F34FEA144E21FACD
:100E00000CF11F433B0CB1FBFEF91FFA84F80EFBFB
:100E1000191143EA014109FB08FA8A4502FA06F270
:100E200000FA06F308D9611809F1FF3048D28A4563
:100E300046D9A9F102092144A1EB0A01BFB2B1FBD5
:100E4000FEF00EFB101147EA014700FB08F8B84519
:100E500007D9E71900F1FF312ED2B8452CD9023855
:100E6000274440EA0940A7EB0807A0FB02894F4549
:100E7000C64649461AD317D05DB1B3EB0E0267EBF5
:100E8000010707FA0CFCF2404CEA0202F740C5E900
:100E9000002700263146BDE8F0872E4628460BE79E
:100EA0000646E9E61846FDE64345E5D2B8EB020EF4
:100EB00069EB04010138DFE70846D2E760468DE7B9
:100EC0008146B9E7664675E730464AE7ACF1020C61
:100ED000394413E702383C4424E700BF704700BFA1
:100EE00080B500AF0E4B1B680D4A43F400731360CE
:100EF0000B4B1B680A4A43F480631360084B1B6862
:100F0000074A43F480731360032000F015F90F20A3
:100F100000F010F800F006F80023184680BD00BF6E
:100F2000003C024080B400AF00BFBD465DF8047BCA
:100F30007047000080B582B000AF7860124B1A682D
:100F4000124B1B7819464FF47A73B3FBF1F3B2FBE3
:100F5000F3F3184600F017F90346002B01D00123E4
:100F60000EE07B680F2B0AD8002279684FF0FF3023
:100F700000F0EDF8064A7B681360002300E00123CF
:100F800018460837BD4680BD180000200400002028
:100F90000000002080B400AF064B1B781A46064BB9
:100FA0001B681344044A136000BFBD465DF8047B10
:100FB000704700BF040000203C24002080B400AF34
:100FC000034B1B681846BD465DF8047B704700BFA5
:100FD0003C24002080B485B000AF78607B6803F0CB
:100FE0000703FB600C4BDB68BB60BA684FF6FF037E
:100FF0001340BB60FB681A02BB68134343F0BF6336
:1010000043F40033BB60044ABB68D36000BF1437AD
:10101000BD465DF8047B704700ED00E080B400AF92
:10102000044BDB681B0A03F007031846BD465DF856
:10103000047B704700ED00E080B483B000AF03464E
:101040003960FB7197F90730002B0ADB3B68DAB295
:101050000C4997F907301201D2B20B4483F80023F0
:101060000AE03B68DAB20849FB7903F00F03043B5E
:101070001201D2B20B441A7600BF0C37BD465DF8A0
:10108000047B704700E100E000ED00E080B489B02F
:1010900000AFF860B9607A60FB6803F00703FB619A
:1010A000FB69C3F10703042B28BF0423BB61FB6961
:1010B0000433062B02D9FB69033B00E000237B616C
:1010C0004FF0FF32BB6902FA03F3DA43BB681A4000
:1010D0007B699A404FF0FF317B6901FA03F3D943F2
:1010E0007B680B40134318462437BD465DF8047BEC
:1010F0007047000080B582B000AF78607B68013B2C
:10110000B3F1807F01D301230FE00A4A7B68013BE2
:1011100053600F214FF0FF30FFF78EFF054B002289
:101120009A60044B07221A60002318460837BD4610
:1011300080BD00BF10E000E080B582B000AF7860F5
:101140007868FFF747FF00BF0837BD4680BD80B510
:1011500086B000AF0346B9607A60FB7300237B6101
:10116000FFF75CFF78617A68B9687869FFF78EFFEE
:10117000024697F90F3011461846FFF75DFF00BF92
:101180001837BD4680BD80B582B000AF7860786802
:10119000FFF7B0FF034618460837BD4680BD000084
:1011A00080B489B000AF7860396000237B61002390
:1011B0003B610023BB610023FB6165E10122FB6908
:1011C00002FA03F37B613B681B687A6913403B6159
:1011D0003A697B699A4240F054813B685B68012B15
:1011E0000BD03B685B68022B07D03B685B68112B18
:1011F00003D03B685B68122B30D17B689B68BB6176
:10120000FB695B00032202FA03F3DB43BA69134074
:10121000BB613B68DA68FB695B0002FA03F3BA69F9
:101220001343BB617B68BA699A607B685B68BB618A
:101230000122FB6902FA03F3DB43BA691340BB6185
:101240003B685B681B0903F00102FB6902FA03F3C8
:10125000BA691343BB617B68BA695A607B68DB6813
:10126000BB61FB695B00032202FA03F3DB43BA694B
:101270001340BB613B689A68FB695B0002FA03F3A9
:10128000BA691343BB617B68BA69DA603B685B6823
:10129000022B03D03B685B68122B23D1FB69DA0871
:1012A0007B68083253F82230BB61FB6903F0070307
:1012B0009B000F2202FA03F3DB43BA691340BB61C0
:1012C0003B681A69FB6903F007039B0002FA03F30A
:1012D000BA691343BB61FB69DA087B680832B969F4
:1012E00043F822107B681B68BB61FB695B0003222B
:1012F00002FA03F3DB43BA691340BB613B685B68E6
:1013000003F00302FB695B0002FA03F3BA691343BB
:10131000BB617B68BA691A603B685B6803F0805305
:10132000002B00F0AE800023FB605D4B5B6C5C4AE1
:1013300043F4804353645A4B5B6C03F48043FB607B
:10134000FB68584AFB699B08023352F82330BB61A3
:10135000FB6903F003039B000F2202FA03F3DB4354
:10136000BA691340BB617B684F4A934225D07B68C2
:101370004E4A93421FD07B684D4A934219D07B68F6
:101380004C4A934213D07B684B4A93420DD07B6802
:101390004A4A934207D07B68494A934201D10623C7
:1013A0000CE007230AE0052308E0042306E00323FA
:1013B00004E0022302E0012300E00023FA6902F0C6
:1013C000030292009340BA691343BB613549FB693C
:1013D0009B080233BA6941F823203A4B1B68BB6172
:1013E0003B69DB43BA691340BB613B685B6803F44C
:1013F0008033002B03D0BA693B691343BB61314A88
:10140000BB6913602F4B5B68BB613B69DB43BA6907
:101410001340BB613B685B6803F40033002B03D0CF
:10142000BA693B691343BB61264ABB695360254BCC
:101430009B68BB613B69DB43BA691340BB613B6896
:101440005B6803F48013002B03D0BA693B69134334
:10145000BB611C4ABB6993601A4BDB68BB613B698B
:10146000DB43BA691340BB613B685B6803F400135C
:10147000002B03D0BA693B691343BB61114ABB69B6
:10148000D360FB690133FB61FB690F2B7FF696AEDE
:1014900000BF00BF2437BD465DF8047B704700BF26
:1014A00000380240003801400000024000040240C1
:1014B00000080240000C02400010024000140240EC
:1014C00000180240003C014080B586B000AF786053
:1014D0007B68002B01D101235BE27B681B6803F072
:1014E0000103002B75D0A34B9B6803F00C03042B66
:1014F0000CD0A04B9B6803F00C03082B12D19D4B22
:101500005B6803F48003B3F5800F0BD1994B1B6824
:1015100003F40033002B5BD07B685B68002B57D152
:10152000012336E27B685B68B3F5803F06D1914BBF
:101530001B68904A43F4803313601DE07B685B684E
:10154000B3F5A02F0CD18B4B1B688A4A43F4802340
:101550001360884B1B68874A43F4803313600BE0A9
:10156000844B1B68834A23F480331360814B1B68D0
:10157000804A23F4802313607B685B68002B13D0C0
:10158000FFF71CFD386108E0FFF718FD02463B69D4
:10159000D31A642B01D90323FBE1764B1B6803F4B8
:1015A0000033002BF0D014E0FFF708FD386108E0AD
:1015B000FFF704FD02463B69D31A642B01D90323CC
:1015C000E7E16C4B1B6803F40033002BF0D100E023
:1015D00000BF7B681B6803F00203002B63D0654BE0
:1015E0009B6803F00C03002B0BD0624B9B6803F04D
:1015F0000C03082B1CD15F4B5B6803F48003002BAA
:1016000016D15C4B1B6803F00203002B05D07B68EE
:10161000DB68012B01D00123BBE1564B1B6823F093
:10162000F8027B681B69DB00524913430B603AE008
:101630007B68DB68002B20D04F4B01221A60FFF73C
:10164000BDFC386108E0FFF7B9FC02463B69D31ADC
:10165000022B01D903239CE1464B1B6803F00203D4
:10166000002BF0D0434B1B6823F0F8027B681B690A
:10167000DB00404913430B6015E03F4B00221A602A
:10168000FFF79CFC386108E0FFF798FC02463B69D5
:10169000D31A022B01D903237BE1364B1B6803F0DD
:1016A0000203002BF0D17B681B6803F00803002BBA
:1016B00030D07B685B69002B16D0304B01221A605A
:1016C000FFF77CFC386108E0FFF778FC02463B69D5
:1016D000D31A022B01D903235BE1264B5B6F03F086
:1016E0000203002BF0D015E0244B00221A60FFF714
:1016F00065FC386108E0FFF761FC02463B69D31ADC
:10170000022B01D9032344E11A4B5B6F03F0020360
:10171000002BF0D17B681B6803F00403002B00F062
:10172000A0800023FB75134B1B6C03F08053002B30
:101730000FD10023BB600F4B1B6C0E4A43F080534C
:1017400013640C4B1B6C03F08053BB60BB6801231C
:10175000FB750B4B1B6803F48073002B21D1084BE6
:101760001B68074A43F480731360FFF727FC386156
:1017700011E000BF0038024000004742800E47429F
:1017800000700040FFF71AFC02463B69D31A022B97
:1017900001D90323FDE0814B1B6803F48073002B08
:1017A000F0D07B689B68012B06D17D4B1B6F7C4A78
:1017B00043F0010313671CE07B689B68052B0CD189
:1017C000774B1B6F764A43F004031367744B1B6F10
:1017D000734A43F0010313670BE0714B1B6F704AB0
:1017E00023F0010313676E4B1B6F6D4A23F0040354
:1017F00013677B689B68002B15D0FFF7DFFB386110
:101800000AE0FFF7DBFB02463B69D31A41F288325C
:10181000934201D90323BCE0614B1B6F03F0020329
:10182000002BEED014E0FFF7C9FB38610AE0FFF7A8
:10183000C5FB02463B69D31A41F28832934201D973
:101840000323A6E0564B1B6F03F00203002BEED1DF
:10185000FB7D012B05D1524B1B6C514A23F0805369
:1018600013647B689B69002B00F092804C4B9B6853
:1018700003F00C03082B5CD07B689B69022B41D1E1
:10188000484B00221A60FFF799FB386108E0FFF728
:1018900095FB02463B69D31A022B01D9032378E05A
:1018A0003F4B1B6803F00073002BF0D17B68DA69B3
:1018B0007B681B6A1A437B685B6A9B011A437B68DF
:1018C0009B6A5B08013B1B041A437B68DB6A1B06AF
:1018D000334913434B60334B01221A60FFF76EFB11
:1018E000386108E0FFF76AFB02463B69D31A022B16
:1018F00001D903234DE02A4B1B6803F00073002B32
:10190000F0D045E0274B00221A60FFF757FB386103
:1019100008E0FFF753FB02463B69D31A022B01D9BB
:10192000032336E01E4B1B6803F00073002BF0D13D
:101930002EE07B689B69012B01D1012329E0184B24
:101940005B68FB60FB6803F480027B68DB699A429A
:101950001CD1FB6803F03F027B681B6A9A4215D1D9
:10196000FA6847F6C07313407A68526A93420DD101
:10197000FB6803F440327B689B6A9A4206D1FB689D
:1019800003F070627B68DB6A9A4201D0012300E0B9
:10199000002318461837BD4680BD00BF00700040C8
:1019A000003802406000474280B584B000AF7860E4
:1019B00039607B68002B01D10123CCE0684B1B68A8
:1019C00003F00F033A689A420CD9654B3A68D2B2D9
:1019D0001A70634B1B6803F00F033A689A4201D0F8
:1019E0000123B8E07B681B6803F00203002B20D0C2
:1019F0007B681B6803F00403002B05D0594B9B68E0
:101A0000584A43F4E05393607B681B6803F0080373
:101A1000002B05D0534B9B68524A43F460439360BC
:101A2000504B9B6823F0F0027B689B684D49134341
:101A30008B607B681B6803F00103002B44D07B683C
:101A40005B68012B07D1474B1B6803F40033002B65
:101A500019D101237FE07B685B68022B03D07B6890
:101A60005B68032B07D13F4B1B6803F00073002B0F
:101A700009D101236FE03B4B1B6803F00203002BED
:101A800001D1012367E0374B9B6823F003027B6899
:101A90005B68344913438B60FFF790FAF8600AE003
:101AA000FFF78CFA0246FB68D31A41F28832934260
:101AB00001D903234FE02B4B9B6803F00C027B689A
:101AC0005B689B009A42EBD1254B1B6803F00F0328
:101AD0003A689A420CD2224B3A68D2B21A70204B22
:101AE0001B6803F00F033A689A4201D0012332E0E9
:101AF0007B681B6803F00403002B08D0194B9B681C
:101B000023F4E0527B68DB68164913438B607B68E3
:101B10001B6803F00803002B09D0124B9B6823F4C9
:101B200060427B681B69DB000E4913438B6000F049
:101B300021F802460B4B9B681B0903F00F030A496F
:101B4000CB5C22FA03F3094A1360094B1B68184661
:101B5000FFF7F0F9002318461037BD4680BD00BFDF
:101B6000003C024000380240548B0008180000205E
:101B7000000000202DE9B04384B000AF00237B605B
:101B80000023FB6000233B600023BB60674B9B6826
:101B900003F00C03082B0DD0082B00F2BD80002BA6
:101BA00002D0042B03D0B7E0614BBB60B7E0614BC0
:101BB000BB60B4E05D4B5B6803F03F037B605B4B55
:101BC0005B6803F48003002B4DD0584B5B689B0986
:101BD0001A464FF0000340F2FF104FF0000102EAF6
:101BE000000803EA0109404649464FF000024FF061
:101BF00000034B0143EAD063420110461946B0EBA3
:101C0000080061EB09014FF000024FF000038B0167
:101C100043EA90638201121A63EB01034FF0000064
:101C20004FF00001D90041EA5271D00002460B4644
:101C300012EB080243EB09034FF000004FF00001E4
:101C4000590241EAD251500202460B46104619464B
:101C50007B681A464FF00003FEF7C6FF02460B46AC
:101C60001346FB604AE0314B5B689B091A464FF014
:101C7000000340F2FF104FF0000102EA000403EA03
:101C80000105204629464FF000024FF000034B01AA
:101C900043EAD063420110461946001B61EB05017F
:101CA0004FF000024FF000038B0143EA9063820182
:101CB000121A63EB01034FF000004FF00001D9004E
:101CC00041EA5271D00002460B46121945EB03035C
:101CD0004FF000004FF00001990241EA925190024A
:101CE00002460B46104619467B681A464FF0000321
:101CF000FEF77AFF02460B461346FB600B4B5B6810
:101D00001B0C03F0030301335B003B60FA683B6884
:101D1000B2FBF3F3BB6002E0054BBB6000BFBB68E6
:101D200018461037BD46BDE8B08300BF00380240FA
:101D30000024F40000127A0080B400AF034B1B684B
:101D40001846BD465DF8047B704700BF18000020B0
:101D500080B500AFFFF7F0FF0246054B9B689B0A7A
:101D600003F007030349CB5C22FA03F3184680BD56
:101D700000380240648B000880B500AFFFF7DCFF3D
:101D80000246054B9B685B0B03F007030349CB5CE2
:101D900022FA03F3184680BD00380240648B000825
:101DA00080B582B000AF78607B68002B01D1012341
:101DB0003FE07B6893F83930DBB2002B06D17B68BB
:101DC000002283F83820786800F037F87B682422F6
:101DD00083F839207B681B68DA687B681B6822F40B
:101DE0000052DA60786800F015F97B681B681A69A0
:101DF0007B681B6822F490421A617B681B685A69F1
:101E00007B681B6822F02A025A617B681B68DA68CB
:101E10007B681B6842F40052DA607B680022DA6358
:101E20007B68202283F839207B68202283F83A20BF
:101E3000002318460837BD4680BD80B483B000AF8C
:101E4000786000BF0C37BD465DF8047B704780B5F5
:101E500088B002AFF860B9603B601346FB80002396
:101E60007B61FB6893F83930DBB2202B40F0838034
:101E7000BB68002B02D0FB88002B01D101237BE043
:101E8000FB6893F83830012B01D1022374E0FB6822
:101E9000012283F83820FB680022DA63FB682122E4
:101EA00083F83920FFF78AF87861FB68FA889A840A
:101EB000FB68FA88DA84FB68002283F8382042E065
:101EC000FB68DB8C9BB2013B9AB2FB68DA84FB684F
:101ED0009B68B3F5805F22D13B6800937B69002249
:101EE0008021F86800F04CF80346002B01D0032352
:101EF00042E0BB683B613B691B881A46FB681B6874
:101F0000C2F308025A60FB681B69002B03D1BB684F
:101F10000233BB6017E0BB680133BB6013E03B6872
:101F200000937B6900228021F86800F029F80346BD
:101F3000002B01D003231FE0BB685A1CBA601A783B
:101F4000FB681B685A60FB68DB8C9BB2002BB7D127
:101F50003B6800937B6900224021F86800F010F88C
:101F60000346002B01D0032306E0FB68202283F800
:101F70003920002300E0022318461837BD4680BDF3
:101F800080B584B000AFF860B9603B601346FB7168
:101F90002CE0BB69B3F1FF3F28D0BB69002B07D011
:101FA000FFF70CF802463B68D31ABA699A421DD271
:101FB000FB681B68DA68FB681B6822F4D072DA6081
:101FC000FB681B685A69FB681B6822F001025A61B2
:101FD000FB68202283F83920FB68202283F83A200E
:101FE000FB68002283F8382003230FE0FB681B689E
:101FF0001A68BB681340BA689A420CBF01230023D9
:10200000DBB21A46FB799A42C3D000231846103738
:10201000BD4680BD2DE9F04FBDB000AFC7F8E4006C
:10202000D7F8E4301B681B6923F44050D7F8E4303C
:10203000D968D7F8E4301A6840EA01031361D7F889
:10204000E4309A68D7F8E4301B691A43D7F8E430D3
:102050005B691A43D7F8E430DB691343C7F8EC3007
:10206000D7F8E4301B68DB6823F4164121F00C013B
:10207000D7F8E4301A68D7F8EC300B43D360D7F8C0
:10208000E4301B685B6923F44070D7F8E430996949
:10209000D7F8E4301A6840EA01035361D7F8E43016
:1020A000DB69B3F5004F40F0A581D7F8E4301A683A
:1020B000CD4B9A4206D0D7F8E4301A68CB4B9A42FF
:1020C00040F0CB80FFF758FEC7F8E800D7F8E830BB
:1020D0001C464FF0000522462B469118C7F8881081
:1020E0005B41C7F88C30D7E92223121945EB030373
:1020F0004FF000004FF00001D90041EA5271D000CA
:1021000002460B461119C7F8D8106B41C7F8DC30EE
:10211000D7F8E4305B681A464FF000039118C7F80F
:1021200080105B41C7F88430D7E92023D7E9360116
:10213000FEF75AFD02460B46AD4BA3FB02235B099B
:102140001E01D7F8E8301C464FF0000522462B460A
:102150009118B9675B41FB67D7E91E23121945EB5C
:1021600003034FF000004FF00001D90041EA527123
:10217000D00002460B461119C7F8D0106B41C7F8C2
:10218000D430D7F8E4305B681A464FF0000391185A
:1021900039675B417B67D7E91C23D7E93401FEF738
:1021A00023FD02460B46924BA3FB02135B096421FD
:1021B00001FB03F3D31ADB0032338D4AA2FB032366
:1021C0005B095B0003F4F8731E44D7F8E830184647
:1021D0004FF0000102460B469418BC665B41FB665B
:1021E000D7E91A23121841EB03034FF000044FF014
:1021F0000005DD0045EA5275D40022462B4614182E
:10220000C7F8C8404B41C7F8CC30D7F8E4305B681A
:102210001A464FF00003911839665B417B66D7E997
:102220001823D7E93201FEF7DFFC02460B46704B5C
:10223000A3FB02135B09642101FB03F3D31ADB0048
:1022400032336B4AA2FB03235B0903F00702D7F882
:10225000E4301B6832449A606DE2FFF779FDC7F8FD
:10226000E800D7F8E8301C464FF0000522462B4620
:102270009118B9655B41FB65D7E91623121945EB47
:1022800003034FF000004FF00001D90041EA527102
:10229000D00002460B461119C7F8C0106B41C7F8B1
:1022A000C430D7F8E4305B681A464FF00003911849
:1022B00039655B417B65D7E91423D7E93001FEF727
:1022C00093FC02460B464A4BA3FB02235B091E010B
:1022D000D7F8E8301C464FF0000522462B469118EF
:1022E000B9645B41FB64D7E91223121945EB030380
:1022F0004FF000004FF00001D90041EA5271D000C8
:1023000002460B461119C7F8B8106B41C7F8BC302C
:10231000D7F8E4305B681A464FF00003911839642F
:102320005B417B64D7E91023D7E92E01FEF75CFC03
:1023300002460B462E4BA3FB02135B09642101FBF3
:1023400003F3D31ADB003233294AA2FB03235B09D0
:102350005B0003F4F8731E44D7F8E83018464FF0DA
:10236000000102460B469418BC635B41FB63D7E94E
:102370000E23121841EB03034FF000044FF0000549
:10238000DD0045EA5275D40022462B461418C7F8E2
:10239000B0404B41C7F8B430D7F8E4305B681A4618
:1023A0004FF00003911839635B417B63D7E90C233D
:1023B000D7E92C01FEF718FC02460B460C4BA3FB99
:1023C00002135B09642101FB03F3D31ADB003233F0
:1023D000074AA2FB03235B0903F00702D7F8E430A6
:1023E0001B6832449A60A6E10010014000140140CD
:1023F0001F85EB51D7F8E4301A68D14B9A4206D0CA
:10240000D7F8E4301A68CF4B9A4240F0CA80FFF701
:10241000B3FCC7F8E800D7F8E8301C464FF00005D9
:1024200022462B469118B9625B41FB62D7E90A2329
:10243000121945EB03034FF000004FF00001D900E3
:1024400041EA5271D00002460B4612EB040A43EBFC
:10245000050BD7F8E4305B6818464FF000014FF0E9
:1024600000024FF000038B0043EA90738200504655
:102470005946FEF7B9FB02460B46B34BA3FB0223BA
:102480005B091E01D7F8E83018464FF000010246FC
:102490000B4694183C625B417B62D7E90823121813
:1024A00041EB03034FF000044FF00005DD0045EA67
:1024B0005275D40022462B461418C7F8A8404B4149
:1024C000C7F8AC30D7F8E4305B6818464FF000012D
:1024D0004FF000024FF000038B0043EA907382003C
:1024E000D7E92A01FEF780FB02460B46964BA3FB79
:1024F00002135B09642101FB03F3D31A1B0132337E
:10250000914AA2FB03235B0903F0F0031E44D7F8B2
:10251000E83018464FF0000102460B469418BC61A3
:102520005B41FB61D7E90623121841EB03034FF02F
:1025300000044FF00005DD0045EA5275D400224644
:102540002B461418C7F8A0404B41C7F8A430D7F861
:10255000E4305B6818464FF000014FF000024FF086
:1025600000038B0043EA90738200D7E92801FEF74D
:102570003BFB02460B46744BA3FB02135B09642131
:1025800001FB03F3D31A1B0132336F4AA2FB03236F
:102590005B0903F00F02D7F8E4301B6832449A60FD
:1025A000C9E0FFF7D5FBC7F8E800D7F8E8301C46CC
:1025B0004FF0000522462B46911839615B417B6143
:1025C000D7E90423121945EB03034FF000004FF045
:1025D0000001D90041EA5271D00002460B4612EBCD
:1025E000040843EB0509D7F8E4305B6818464FF060
:1025F00000014FF000024FF000038B0043EA90739C
:10260000820040464946FEF7EFFA02460B464E4B23
:10261000A3FB02235B091E01D7F8E83018464FF0F0
:10262000000102460B469418BC605B41FB60D7E991
:102630000223121841EB03034FF000044FF0000592
:10264000DD0045EA5275D40022462B461418C7F81F
:1026500098404B41C7F89C30D7F8E4305B68184687
:102660004FF000014FF000024FF000038B0043EAEF
:1026700090738200D7E92601FEF7B6FA02460B46B0
:10268000314BA3FB02135B09642101FB03F3D31A53
:102690001B0132332C4AA2FB03235B0903F0F00336
:1026A0001E44D7F8E83018464FF0000102460B46AA
:1026B00094183C605B417B60D7E90023121841EB22
:1026C00003034FF000044FF00005DD0045EA5275AA
:1026D000D40022462B461418C7F890404B41C7F847
:1026E0009430D7F8E4305B6818464FF000014FF0A3
:1026F00000024FF000038B0043EA90738200D7E999
:102700002401FEF771FA02460B460F4BA3FB02139E
:102710005B09642101FB03F3D31A1B0132330A4A1C
:10272000A2FB03235B0903F00F02D7F8E4301B6818
:1027300032449A60FFE700BFF437BD46BDE8F08F32
:1027400000100140001401401F85EB5180B584B09A
:1027500000AF78607B68002B01D101232BE17B68FF
:1027600093F83D30DBB2002B06D17B68002283F862
:102770003C20786800F02EF97B68242283F83D2005
:102780007B681B681A687B681B6822F001021A606C
:102790007B681B681A687B681B6842F400421A60F9
:1027A0007B681B681A687B681B6822F400421A6009
:1027B000FFF7CEFAF8607B685B68814A934207D8DE
:1027C000FB68804A934294BF01230023DBB206E0FA
:1027D000FB687D4A934294BF01230023DBB2002BA8
:1027E00001D00123E7E0FB68784AA2FB03239B0C9E
:1027F000BB607B681B685B6823F03F017B681B68DC
:10280000BA680A435A607B681B681B6A23F03F0161
:102810007B685B686A4A934202D8BB68013309E06F
:10282000BB684FF4967202FB03F3694AA2FB0323D1
:102830009B0901337A6812680B4313627B681B683B
:10284000DB6923F44F4222F0FF027B685B685C493E
:102850008B4219D8FB68591E7B685B685B00B1FB33
:10286000F3F3591C40F6FC730B40002B0AD0FB68B5
:10287000591E7B685B685B00B1FBF3F30133C3F364
:102880000B0351E004234FE07B689B68002B11D1C0
:10289000FB68581E7B6859680B465B000B44B0FB15
:1028A000F3F30133C3F30B03002B0CBF012300230D
:1028B000DBB212E0FB68581E7B6859680B469B0030
:1028C0000B4499000B44B0FBF3F30133C3F30B0348
:1028D000002B0CBF01230023DBB2002B01D001230E
:1028E00022E07B689B68002B0ED1FB68581E7B683A
:1028F00059680B465B000B44B0FBF3F30133C3F3A1
:102900000B0343F400430FE0FB68581E7B685968D3
:102910000B469B000B4499000B44B0FBF3F30133CF
:10292000C3F30B0343F44043796809681343CB6155
:102930007B681B681B6823F0C0017B68DA697B68D1
:102940001B6A1A437B681B680A431A607B681B6812
:102950009B6823F4034323F0FF037A6811697A68C4
:10296000D26811437A6812680B4393607B681B68D6
:10297000DB6823F0FF017B685A697B689B691A4317
:102980007B681B680A43DA607B681B681A687B688F
:102990001B6842F001021A607B6800221A647B689F
:1029A000202283F83D207B6800221A637B68002286
:1029B00083F83E20002318461037BD4680BD00BF77
:1029C000A08601007F841E00FF083D0083DE1B43BC
:1029D000D34D621080B483B000AF786000BF0C3775
:1029E000BD465DF8047B704780B588B002AFF860E3
:1029F000084611461A4603467B810B463B81134627
:102A0000FB80FEF7DBFA7861FB6893F83D30DBB2C0
:102A1000202B40F0D9807B690093192301226D4956
:102A2000F86800F07BF90346002B01D00223CCE0CC
:102A3000FB6893F83C30012B01D10223C5E0FB6811
:102A4000012283F83C20FB681B681B6803F001032C
:102A5000012B07D0FB681B681A68FB681B6842F0F3
:102A600001021A60FB681B681A68FB681B6822F485
:102A700000621A60FB68212283F83D20FB68402237
:102A800083F83E20FB6800221A64FB683A6A5A62A7
:102A9000FB68BA8C5A85FB685B8D9AB2FB681A8515
:102AA000FB684D4ADA62F8883A8979897B69019333
:102AB000BB6A00930346F86800F09CF80346002BBD
:102AC00052D0012381E07A69B96AF86800F0FCF914
:102AD0000346002B0DD0FB681B6C042B07D1FB6851
:102AE0001B681A68FB681B6842F400721A600123B5
:102AF0006BE0FB685B6A1A78FB681B681A61FB680D
:102B00005B6A5A1CFB685A62FB681B8D013B9AB2D8
:102B1000FB681A85FB685B8D9BB2013B9AB2FB6830
:102B20005A85FB681B685B6903F00403042B1BD107
:102B3000FB681B8D002B17D0FB685B6A1A78FB685B
:102B40001B681A61FB685B6A5A1CFB685A62FB6867
:102B50001B8D013B9AB2FB681A85FB685B8D9BB2AB
:102B6000013B9AB2FB685A85FB681B8D002BAAD1EA
:102B70007A69B96AF86800F0E8F90346002B0DD0CD
:102B8000FB681B6C042B07D1FB681B681A68FB6889
:102B90001B6842F400721A60012316E0FB681B6890
:102BA0001A68FB681B6842F400721A60FB682022F6
:102BB00083F83D20FB68002283F83E20FB6800225A
:102BC00083F83C20002300E0022318461837BD4656
:102BD00080BD00BF020010000000FFFF80B483B082
:102BE00000AF78607B681B6C18460C37BD465DF8FB
:102BF000047B704780B588B002AFF8600846114684
:102C00001A4603467B810B463B811346FB80FB68DB
:102C10001B681A68FB681B6842F480721A607B6A42
:102C200000933B6A00224FF00111F86800F076F83B
:102C30000346002B0CD0FB681B681B6803F48073F1
:102C4000002B03D0FB684FF400721A6403235FE08B
:102C50007B89DBB21A46FB681B6802F0FE021A6130
:102C60007B6A3A6A2C49F86800F0AFF80346002BFB
:102C700001D001234CE000237B61FB681B685B698A
:102C80007B61FB681B689B697B617B697A6A396A37
:102C9000F86800F019F90346002B0DD0FB681B6C97
:102CA000042B07D1FB681B681A68FB681B6842F499
:102CB00000721A6001232BE0FB88012B05D13B89B0
:102CC000DAB2FB681B681A6121E03B891B0A9BB2E0
:102CD000DAB2FB681B681A617A6A396AF86800F030
:102CE000F3F80346002B0DD0FB681B6C042B07D1B7
:102CF000FB681B681A68FB681B6842F400721A6064
:102D0000012305E03B89DAB2FB681B681A610023E6
:102D100018461837BD4680BD0200010080B584B05A
:102D200000AFF860B9603B601346FB7125E03B687B
:102D3000B3F1FF3F21D0FEF741F90246BB69D31A38
:102D40003A689A4202D33B68002B16D1FB680022F6
:102D50001A63FB68202283F83D20FB68002283F879
:102D60003E20FB681B6C43F02002FB681A64FB6882
:102D7000002283F83C20012323E0BB681B0CDBB25C
:102D8000012B0DD1FB681B685B69DA43BB681340FC
:102D90009BB2002B0CBF01230023DBB21A460CE0D0
:102DA000FB681B689B69DA43BB6813409BB2002B2E
:102DB0000CBF01230023DBB21A46FB799A42B6D03E
:102DC000002318461037BD4680BD80B584B000AFE3
:102DD000F860B9607A603B6051E0FB681B685B6932
:102DE00003F48063B3F5806F23D1FB681B681A6816
:102DF000FB681B6842F400721A60FB681B686FF482
:102E000080625A61FB6800221A63FB68202283F803
:102E10003D20FB68002283F83E20FB681B6C43F0DA
:102E20000402FB681A64FB68002283F83C2001233B
:102E300046E07B68B3F1FF3F21D0FEF7BFF80246C2
:102E40003B68D31A7A689A4202D37B68002B16D16A
:102E5000FB6800221A63FB68202283F83D20FB6890
:102E6000002283F83E20FB681B6C43F02002FB68C5
:102E70001A64FB68002283F83C20012320E0BB6831
:102E80001B0CDBB2012B0CD1FB681B685B69DA43BE
:102E9000BB6813409BB2002B14BF01230023DBB29D
:102EA0000BE0FB681B689B69DA43BB6813409BB26D
:102EB000002B14BF01230023DBB2002B8DD1002394
:102EC00018461037BD4680BD80B584B000AFF860AD
:102ED000B9607A602DE0F86800F078F80346002BBE
:102EE00001D001232DE0BB68B3F1FF3F21D0FEF7F5
:102EF00065F802467B68D31ABA689A4202D3BB6867
:102F0000002B16D1FB6800221A63FB68202283F88D
:102F10003D20FB68002283F83E20FB681B6C43F0D9
:102F20002002FB681A64FB68002283F83C2001231E
:102F300007E0FB681B685B6903F08003802BCAD144
:102F4000002318461037BD4680BD80B584B000AF61
:102F5000F860B9607A602DE0F86800F037F8034651
:102F6000002B01D001232DE0BB68B3F1FF3F21D03E
:102F7000FEF724F802467B68D31ABA689A4202D355
:102F8000BB68002B16D1FB6800221A63FB68202265
:102F900083F83D20FB68002283F83E20FB681B6C11
:102FA00043F02002FB681A64FB68002283F83C208F
:102FB000012307E0FB681B685B6903F00403042B33
:102FC000CAD1002318461037BD4680BD80B483B0F7
:102FD00000AF78607B681B685B6903F48063B3F5BE
:102FE000806F1BD17B681B686FF480625A617B68BD
:102FF00000221A637B68202283F83D207B68002230
:1030000083F83E207B681B6C43F004027B681A64E3
:103010007B68002283F83C20012300E0002318464F
:103020000C37BD465DF8047B7047000080B596B054
:1030300000AF002387F857300023BB602E4B1B6C7A
:103040002D4A43F0805313642B4B1B6C03F08053C9
:10305000BB60BB6800237B60284B1B68274A43F496
:1030600040431360254B1B6803F440437B607B683F
:103070000123FB604FF480333B6102237B624FF4FA
:103080008003BB620823FB62C8233B6302237B638C
:103090000723BB630223FB6307F10C031846FEF70B
:1030A00013FA034687F8573097F85730002B02D0B1
:1030B0004FF0FF331BE00F233B6402237B640023AC
:1030C000BB644FF48053FB6400233B6507F140036E
:1030D00003211846FEF768FC034687F8573097F837
:1030E0005730002B02D04FF0FF3300E0002318468A
:1030F0005837BD4680BD00BF003802400070004018
:1031000080B582B000AFFDF7EBFEFFF78FFF786070
:103110007B68002B01D000F044F900BF0837BD46A2
:1031200080BD000080B58AB000AF786000233B61AD
:10313000344B1B6B334A43F001031363314B1B6B5E
:1031400003F001033B613B690023FB602D4B1B6BCC
:103150002C4A43F0010313632A4B1B6B03F001035A
:10316000FB60FB680023BB60264B1B6C254A43F4C5
:1031700000331364234B1B6C03F40033BB60BB6848
:1031800004237B610223BB610123FB6103233B62B8
:1031900007237B6207F1140319461B48FEF700F86A
:1031A00008237B6107237B6207F114031946164845
:1031B000FDF7F6FF7B68154A1A607B684FF4E13231
:1031C0005A607B6800229A607B680022DA607B6824
:1031D00000221A617B6800229A617B680C225A6186
:1031E0007B680022DA617868FEF7DAFD0346002B7F
:1031F00002D04FF0FF3300E0002318462837BD46C9
:1032000080BD00BF00380240000002400044004082
:1032100080B584B000AFF860B9601346FB80FA88CF
:103220004FF6FF73B968F868FEF711FE00BF10375C
:10323000BD4680BD80B58AB000AF786000233B6199
:103240003C4B1B6B3B4A43F002031363394B1B6B34
:1032500003F002033B613B690023FB60354B1B6BB2
:10326000344A43F002031363324B1B6B03F0020337
:10327000FB60FB680023BB602E4B1B6C2D4A43F4A4
:10328000001313642B4B1B6C03F40013BB60BB686F
:10329000284B1B6A274A43F400131362254B1B6A11
:1032A000244A23F4001313624FF480737B611223CA
:1032B000BB610123FB6103233B6204237B6207F1B3
:1032C000140319461C48FDF76BFF4FF400737B6134
:1032D00004237B6207F1140319461748FDF760FFCA
:1032E0007B68164A1A607B68154A5A607B68002220
:1032F0009A607B68FF22DA607B684FF480421A6133
:103300007B6800225A617B68FF229A617B680022F9
:10331000DA617B6800221A627868FFF717FA0346C1
:10332000002B02D04FF0FF3300E00023184628376F
:10333000BD4680BD003802400004024000540040F9
:10334000801A060080B586B004AF78600846114642
:103350001A460346FB700B46BB7013463B8008E0E1
:103360007868FFF73BFC0346002B02D04FF0FF3399
:1033700013E0FB789BB25B0099B2BB789AB2192339
:1033800002933B8801933B69009301237868FFF720
:103390002BFB0346002BE3D1002318460837BD461C
:1033A00080BD80B400AFFEE780B58CB004AFF8609C
:1033B000B9603B601346FB80FB889B00184601F018
:1033C0000BFF78617B69002B0ED05C2001F004FFBD
:1033D000F861FB69002B03D0FB697A691A6305E089
:1033E000786901F0C5FF01E00023FB61FB69002B58
:1033F00013D0FA8800230393FB690293FB6A0193BD
:10340000BB6A00933B68B968F86800F00EF8F86989
:1034100000F0A2F80123BB6102E04FF0FF33BB6173
:10342000BB6918462037BD4680BD80B588B000AF67
:10343000F860B9607A603B603B6B186B7B689B00FF
:103440001A46A52102F07EFC3B6B1A6B7B6803F1E8
:103450008043013B9B001344BB61BB6923F007031E
:10346000BB61BB6903F00703002B0AD04FF0500388
:1034700083F31188BFF36F8FBFF34F8F7B6100BF62
:10348000FEE7BB68002B1FD00023FB6112E0BA6887
:10349000FB69134419783A6BFB69134434330A46C9
:1034A0001A70BA68FB6913441B78002B06D0FB69BD
:1034B0000133FB61FB690F2BE9D900E000BF3B6BD7
:1034C000002283F8432003E03B6B002283F8342082
:1034D000BB6A062B01D90623BB623B6BBA6ADA6270
:1034E0003B6BBA6ADA643B6B00221A653B6B0433B0
:1034F000184601F0CBFA3B6B1833184601F0C6FAB8
:103500003B6B3A6B1A61BB6AC3F107023B6B9A6172
:103510003B6B3A6B5A623B6B5433042200211846D2
:1035200002F010FC3B6B583301220021184602F0D8
:1035300009FC3A68F968B86902F038F802463B6B52
:103540001A60FB6A002B02D0FB6A3A6B1A6000BF5C
:103550002037BD4680BD000080B582B000AF7860E6
:1035600002F052F92C4B1B6801332B4A13602B4B92
:103570001B68002B09D1294A7B681360264B1B6806
:10358000012B10D100F0F8FB0DE0254B1B68002B40
:1035900009D1224B1B68DA6A7B68DB6A9A4202D83F
:1035A0001E4A7B6813601F4B1B6801331D4A136062
:1035B0001C4B1A687B685A647B68DB6A01229A405C
:1035C000194B1B681343184A13607B68DA6A134669
:1035D0009B0013449B00154A1A447B680433194628
:1035E000104601F060FA02F03FF90D4B1B68002B0A
:1035F0000ED00A4B1B68DA6A7B68DB6A9A4207D2F4
:103600000B4B4FF080521A60BFF34F8FBFF36F8F99
:1036100000BF0837BD4680BD080300200802002017
:103620001403002024030020100300200C020020BB
:1036300004ED00E080B584B000AF78600023FB604B
:103640007B68002B17D0134B1B68002B0AD04FF060
:10365000500383F31188BFF36F8FBFF34F8FBB60AD
:1036600000BFFEE700F068F80021786800F0B6FCC3
:1036700000F070F8F860FB68002B07D1064B4FF0A4
:1036800080521A60BFF34F8FBFF36F8F00BF1037A8
:10369000BD4680BD3003002004ED00E080B586B05B
:1036A00002AF1F4B019300230093002380221D498A
:1036B0001D48FFF779FEF860FB68012B02D101F08D
:1036C00079FAF860FB68012B16D14FF0500383F3B1
:1036D0001188BFF36F8FBFF34F8FBB6000BF134BD9
:1036E0004FF0FF321A60124B01221A60114B002278
:1036F0001A6001F0E7FF0EE0FB68B3F1FF3F0AD16B
:103700004FF0500383F31188BFF36F8FBFF34F8FD8
:103710007B6000BFFEE700BF1037BD4680BD00BF25
:103720002C030020188B0008493D000828030020C6
:10373000140300200C03002080B400AF044B1B686E
:103740000133034A136000BFBD465DF8047B704738
:103750003003002080B584B000AF0023FB6000235D
:10376000BB60414B1B68002B0AD14FF0500383F321
:103770001188BFF36F8FBFF34F8F3B6000BFFEE731
:1037800002F042F8384B1B68013B374A1360364B56
:103790001B68002B61D1354B1B68002B5DD02EE0E0
:1037A000334BDB68DB68FB60FB681833184601F0BD
:1037B000D7F9FB680433184601F0D2F9FB68DB6ADD
:1037C00001229A402B4B1B6813432A4A1360FB6863
:1037D000DA6A13469B0013449B00274A1A44FB688D
:1037E00004331946104601F05EF9FB68DA6A234B90
:1037F0001B68DB6A9A4202D3214B01221A601C4BE0
:103800001B68002BCCD1FB68002B01D000F032FBF1
:103810001C4B1B687B607B68002B10D000F046F8C7
:103820000346002B02D0164B01221A607B68013B35
:103830007B607B68002BF1D1124B00221A60104B89
:103840001B68002B09D00123BB600F4B4FF0805247
:103850001A60BFF34F8FBFF36F8F02F005F8BB689C
:1038600018461037BD4680BD3003002008030020F5
:10387000C8020020100300200C02002008020020D3
:103880001C0300201803002004ED00E080B483B086
:1038900000AF054B1B687B607B6818460C37BD4644
:1038A0005DF8047B704700BF0C03002080B586B034
:1038B00000AF00237B614E4B1B68002B40F08E80D5
:1038C0004C4B1B6801333B614A4A3B6913603B69BF
:1038D000002B20D1484B1B681B68002B0AD04FF0EF
:1038E000500383F31188BFF36F8FBFF34F8F3B609B
:1038F00000BFFEE7404B1B68FB60404B1B683E4A25
:1039000013603E4AFB6813603D4B1B6801333C4A21
:10391000136000F0AFFA3B4B1B683A699A4248D3F8
:10392000354B1B681B68002B04D1364B4FF0FF3220
:103930001A603EE0304B1B68DB68DB68BB60BB682D
:103940005B687B603A697B689A4203D22D4A7B6848
:1039500013602EE0BB680433184601F001F9BB6820
:103960009B6A002B04D0BB681833184601F0F8F8A6
:10397000BB68DB6A01229A40234B1B681343224A2F
:103980001360BB68DA6A13469B0013449B001F4A0E
:103990001A44BB6804331946104601F084F8BB682A
:1039A000DA6A1B4B1B68DB6A9A42B9D301237B613D
:1039B000B6E7174B1B68DA6A144913469B00134499
:1039C0009B000B441B68012B01D901237B61114B28
:1039D0001B68002B07D001237B6104E00E4B1B68A2
:1039E00001330D4A13607B6918461837BD4680BD08
:1039F000300300200C030020C0020020C40200207D
:103A00002003002028030020100300200C020020C7
:103A1000080200201C0300201803002080B487B097
:103A200000AF274B1B68002B03D0264B01221A60E6
:103A30003FE0244B00221A60234B1B68FB60FB68AD
:103A4000B3FA83F3FB72FB7AC3F11F037B611F4957
:103A50007A6913469B0013449B000B441B68002BA0
:103A60000AD14FF0500383F31188BFF36F8FBFF378
:103A70004F8F7B6000BFFEE77A6913469B001344BB
:103A80009B00124A13443B613B695B685A683B697F
:103A90005A603B695A683B6908339A4204D13B69D2
:103AA0005B685A683B695A603B695B68DB68084A37
:103AB000136000BF1C37BD465DF8047B704700BF34
:103AC000300300201C030020100300200C02002003
:103AD0000802002080B584B000AF786039607B6850
:103AE000002B0AD14FF0500383F31188BFF36F8F7F
:103AF000BFF34F8FFB6000BFFEE7074B1B68183317
:103B00001946786800F0F3FF0121386800F066FA82
:103B100000BF1037BD4680BD0802002080B586B0CA
:103B200000AFF860B9607A60FB68002B0AD14FF0F3
:103B3000500383F31188BFF36F8FBFF34F8F7B6107
:103B400000BFFEE70A4B1B6818331946F86800F0FF
:103B5000AAFF7B68002B02D04FF0FF33BB6079686F
:103B6000B86800F03BFA00BF1837BD4680BD00BF03
:103B70000802002080B586B000AF78607B68DB6803
:103B8000DB683B613B69002B0AD14FF0500383F3A4
:103B90001188BFF36F8FBFF34F8FFB6000BFFEE74D
:103BA0003B691833184600F0DBFF1D4B1B68002BE8
:103BB0001CD13B690433184600F0D2FF3B69DB6A35
:103BC00001229A40174B1B681343164A13603B6946
:103BD000DA6A13469B0013449B00134A1A443B695C
:103BE00004331946104600F05EFF05E03B691833C8
:103BF00019460E4800F057FF3B69DA6A0C4B1B6808
:103C0000DB6A9A4205D901237B610A4B01221A60C3
:103C100001E000237B617B6918461837BD4680BDF3
:103C200030030020100300200C020020C8020020F6
:103C3000080200201C03002080B483B000AF78602D
:103C4000064B1A687B681A60054B1A687B685A60D5
:103C500000BF0C37BD465DF8047B70472003002091
:103C60000C03002080B588B000AF786039607B68B5
:103C7000002B0AD14FF0500383F31188BFF36F8FED
:103C8000BFF34F8F3B6100BFFEE73B68002B0AD1BB
:103C90004FF0500383F31188BFF36F8FBFF34F8F43
:103CA000FB6000BFFEE701F0AFFD1F4B1B68BB616F
:103CB0007B685B68BA69D31A7B613B681B68B3F1A8
:103CC000FF3F02D10023FB6126E07B681A68174B97
:103CD0001B689A420AD07B685B68BA699A4205D32E
:103CE0000123FB613B6800221A6015E03B681B68FA
:103CF0007A699A420BD23B681A687B69D21A3B6890
:103D00001A607868FFF798FF0023FB6104E03B68C6
:103D100000221A600123FB6101F0A6FDFB69184631
:103D20002037BD4680BD00BF0C03002020030020CB
:103D300080B400AF034B01221A6000BFBD465DF89E
:103D4000047B70471C03002080B582B000AF786010
:103D500000F052F8064B1B68012BF9D9054B4FF0C8
:103D600080521A60BFF34F8FBFF36F8FF0E700BF31
:103D70000C02002004ED00E080B582B000AF00230B
:103D80007B600CE07A6813469B0013449B00124A48
:103D90001344184600F05AFE7B6801337B607B6851
:103DA000062BEFD90D4800F051FE0D4800F04EFEF5
:103DB0000C4800F04BFE0C4800F048FE0B4800F0A9
:103DC00045FE0B4B054A1A600A4B054A1A6000BFB4
:103DD0000837BD4680BD00BF0C02002098020020BD
:103DE000AC020020C8020020DC020020F402002007
:103DF000C0020020C402002080B582B000AF19E0EC
:103E000001F002FD104BDB68DB687B607B680433EC
:103E1000184600F0A5FE0D4B1B68013B0B4A1360D2
:103E20000B4B1B68013B0A4A136001F01DFD7868CB
:103E300000F010F8064B1B68002BE1D100BF00BF5B
:103E40000837BD4680BD00BFDC020020080300200B
:103E5000F002002080B582B000AF78607B681B6BF9
:103E6000184601F085FA786801F082FA00BF083739
:103E7000BD4680BD80B400AF0A4B1B681B68002B99
:103E800004D1094B4FF0FF321A6005E0054B1B6867
:103E9000DB681B68044A136000BFBD465DF8047B05
:103EA000704700BFC00200202803002080B483B008
:103EB00000AF0B4B1B68002B02D101237B6008E095
:103EC000084B1B68002B02D102237B6001E000231A
:103ED0007B607B6818460C37BD465DF8047B7047F5
:103EE000140300203003002080B586B000AF786056
:103EF0007B683B6100237B617B68002B63D0344B84
:103F00001B683A699A420AD04FF0500383F3118834
:103F1000BFF36F8FBFF34F8FFB6000BFFEE73B69BE
:103F20001B6D002B0AD14FF0500383F31188BFF3B0
:103F30006F8FBFF34F8FBB6000BFFEE73B691B6D08
:103F40005A1E3B691A653B69DA6A3B69DB6C9A4227
:103F500039D03B691B6D002B35D13B6904331846C2
:103F600000F0FEFD0346002B0AD13B69DB6A01220B
:103F700002FA03F3DA43174B1B681340154A136028
:103F80003B69DA6C3B69DA623B69DB6AC3F10702C1
:103F90003B699A613B69DB6A01229A400D4B1B68C1
:103FA00013430C4A13603B69DA6A13469B001344BF
:103FB0009B00094A1A443B6904331946104600F035
:103FC00072FD01237B617B6918461837BD4680BDB1
:103FD00008020020100300200C02002080B584B0ED
:103FE00000AF78603960294B1B68FB60284B1B6869
:103FF0000433184600F0B4FD0346002B0BD1244BCC
:104000001B68DB6A012202FA03F3DA43214B1B68C7
:104010001340204A13607B68B3F1FF3F0AD13B682D
:10402000002B07D01A4B1B68043319461A4800F0BE
:104030003AFD26E0FA687B681344BB60144B1B68AA
:10404000BA685A60BA68FB689A4209D2134B1A6878
:104050000F4B1B6804331946104600F048FD10E072
:104060000F4B1A680A4B1B6804331946104600F0C0
:104070003EFD0C4B1B68BA689A4202D2094ABB68E3
:10408000136000BF1037BD4680BD00BF0C03002089
:104090000802002010030020F4020020C4020020C7
:1040A000C00200202803002080B584B000AF7860F3
:1040B00039607B68FB60FB68002B0AD14FF050032E
:1040C00083F31188BFF36F8FBFF34F8FBB6000BFC7
:1040D000FEE701F099FBFB681A68FB68DB6BF96887
:1040E000096C01FB03F31A44FB689A60FB68002229
:1040F0009A63FB681A68FB685A60FB681A68FB6879
:10410000DB6B013BF968096C01FB03F31A44FB68A4
:10411000DA60FB68FF2283F84420FB68FF2283F803
:1041200045203B68002B14D1FB681B69002B1AD07B
:10413000FB6810331846FFF71DFD0346002B12D015
:104140000C4B4FF080521A60BFF34F8FBFF36F8F4D
:1041500009E0FB681033184600F078FCFB68243354
:10416000184600F073FC01F07FFB0123184610375E
:10417000BD4680BD04ED00E080B58CB002AFF860B4
:10418000B9601346FB71FB68002B0AD14FF0500356
:1041900083F31188BFF36F8FBFF34F8FBB6100BFF5
:1041A000FEE7FB68BA6802FB03F37B62BB68002B87
:1041B00006D07A6ABB68B2FBF3F3FA689A4201D17F
:1041C000012300E00023002B0AD14FF0500383F3BA
:1041D0001188BFF36F8FBFF34F8F7B6100BFFEE786
:1041E0007B6A5033184600F0F7FF38623B6A002BB9
:1041F0000DD03B6AFB61FB695033FB61FA793B6A86
:1042000000931346FA69B968F86800F005F83B6A4C
:1042100018462837BD4680BD80B584B000AFF86031
:10422000B9607A60FB70BB68002B03D1BB69BA69C7
:104230001A6002E0BB697A681A60BB69FA68DA63DF
:10424000BB69BA681A640121B869FFF72DFFBB6921
:10425000FA7883F84C2000BF1037BD4680BD0000BF
:1042600080B58EB000AFF860B9607A603B60002323
:104270007B63FB683B633B6B002B0AD14FF0500321
:1042800083F31188BFF36F8FBFF34F8FBB6200BF03
:10429000FEE7BB68002B03D13B6B1B6C002B01D1ED
:1042A000012300E00023002B0AD14FF0500383F3D9
:1042B0001188BFF36F8FBFF34F8F7B6200BFFEE7A4
:1042C0003B68022B03D13B6BDB6B012B01D101233C
:1042D00000E00023002B0AD14FF0500383F3118834
:1042E000BFF36F8FBFF34F8F3B6200BFFEE7FFF757
:1042F000DDFD0346002B02D17B68002B01D1012399
:1043000000E00023002B0AD14FF0500383F3118803
:10431000BFF36F8FBFF34F8FFB6100BFFEE701F06C
:1043200073FA3B6B9A6B3B6BDB6B9A4202D33B6835
:10433000022B29D13A68B968386B00F019FAF86293
:104340003B6B5B6A002B10D03B6B24331846FFF7A6
:1043500011FC0346002B13D03F4B4FF080521A60E4
:10436000BFF34F8FBFF36F8F0AE0FB6A002B07D0BC
:10437000394B4FF080521A60BFF34F8FBFF36F8FEE
:1043800001F072FA012363E07B68002B03D101F096
:104390006BFA00235CE07B6B002B06D107F1140362
:1043A0001846FFF749FC01237B6301F05DFAFFF734
:1043B000C3F901F029FA3B6B93F844305BB2B3F1D7
:1043C000FF3F03D13B6B002283F844203B6B93F803
:1043D00045305BB2B3F1FF3F03D13B6B002283F862
:1043E000452001F041FA3A1D07F114031146184621
:1043F000FFF738FC0346002B24D1386B00F0B0FAED
:104400000346002B18D03B6B10337A6811461846D0
:10441000FFF760FB386B00F03BFAFFF79BF90346B0
:10442000002B7FF47CAF0C4B4FF080521A60BFF32F
:104430004F8FBFF36F8F72E7386B00F029FAFFF7E9
:1044400089F96CE7386B00F023FAFFF783F9002352
:1044500018463837BD4680BD04ED00E080B590B009
:1044600000AFF860B9607A603B60FB68BB63BB6B10
:10447000002B0AD14FF0500383F31188BFF36F8FE5
:10448000BFF34F8FBB6200BFFEE7BB68002B03D1B9
:10449000BB6B1B6C002B01D1012300E00023002B20
:1044A0000AD14FF0500383F31188BFF36F8FBFF32E
:1044B0004F8F7B6200BFFEE73B68022B03D1BB6BD3
:1044C000DB6B012B01D1012300E00023002B0AD17B
:1044D0004FF0500383F31188BFF36F8FBFF34F8FFB
:1044E0003B6200BFFEE701F071FAEFF311824FF07B
:1044F000500383F31188BFF36F8FBFF34F8FFA61BF
:10450000BB61FB697B63BB6B9A6BBB6BDB6B9A42DA
:1045100002D33B68022B3ED1BB6B93F8453087F842
:104520003330BB6B9B6BFB623A68B968B86B00F0C9
:104530001FF997F93330B3F1FF3F12D1BB6B5B6AC0
:10454000002B25D0BB6B24331846FFF713FB034623
:10455000002B1DD07B68002B1AD07B6801221A60CB
:1045600016E097F933307F2B0AD14FF0500383F3D5
:104570001188BFF36F8FBFF34F8F7B6100BFFEE7E2
:1045800097F833300133DBB25AB2BB6B83F8452066
:104590000123FB6301E00023FB637B6B3B613B6911
:1045A00083F3118800BFFB6B18464037BD4680BDC2
:1045B00080B58CB000AFF860B9607A600023FB6210
:1045C000FB68BB62BB6A002B0AD14FF0500383F338
:1045D0001188BFF36F8FBFF34F8F3B6200BFFEE7C1
:1045E000BB68002B03D1BB6A1B6C002B01D10123DC
:1045F00000E00023002B0AD14FF0500383F3118811
:10460000BFF36F8FBFF34F8FFB6100BFFEE7FFF774
:104610004DFC0346002B02D17B68002B01D1012306
:1046200000E00023002B0AD14FF0500383F31188E0
:10463000BFF36F8FBFF34F8FBB6100BFFEE701F089
:10464000E3F8BB6A9B6B7B627B6A002B1FD0B96867
:10465000B86A00F0F7F87B6A5A1EBB6A9A63BB6AB5
:104660001B69002B0FD0BB6A10331846FFF782FA84
:104670000346002B07D03D4B4FF080521A60BFF32A
:104680004F8FBFF36F8F01F0EFF8012369E07B6874
:10469000002B03D101F0E8F8002362E0FB6A002B55
:1046A00006D107F110031846FFF7C6FA0123FB6293
:1046B00001F0DAF8FFF740F801F0A6F8BB6A93F8CA
:1046C00044305BB2B3F1FF3F03D1BB6A002283F8F1
:1046D0004420BB6A93F845305BB2B3F1FF3F03D18E
:1046E000BB6A002283F8452001F0BEF83A1D07F1AD
:1046F000100311461846FFF7B5FA0346002B23D1E5
:10470000B86A00F017F90346002B17D0BB6A2433B0
:104710007A6811461846FFF7DDF9B86A00F0B8F874
:10472000FFF718F80346002B89D1104B4FF0805249
:104730001A60BFF34F8FBFF36F8F80E7B86A00F046
:10474000A7F8FFF707F87AE7B86A00F0A1F8FFF7D3
:1047500001F8B86A00F0EEF80346002B3FF46FAFA3
:10476000002318463037BD4680BD00BF04ED00E091
:1047700080B586B000AFF860B9607A6000237B61D5
:10478000FB689B6B3B61FB681B6C002B0DD1FB68CE
:104790001B68002B4DD1FB689B681846FFF7A4FBF4
:1047A0007861FB6800229A6043E07B68002B19D196
:1047B000FB685868FB681B6C1A46B96801F0B4FACC
:1047C000FB685A68FB681B6C1A44FB685A60FB68FC
:1047D0005A68FB689B689A422BD3FB681A68FB688F
:1047E0005A6026E0FB68D868FB681B6C1A46B968FB
:1047F00001F09AFAFB68DA68FB681B6C5B421A44AA
:10480000FB68DA60FB68DA68FB681B689A4207D2CB
:10481000FB689A68FB681B6C5B421A44FB68DA60B1
:104820007B68022B05D13B69002B02D03B69013B21
:104830003B613B695A1CFB689A637B6918461837D1
:10484000BD4680BD80B582B000AF786039607B68BE
:104850001B6C002B18D07B68DA687B681B6C1A44D1
:104860007B68DA607B68DA687B689B689A4203D36E
:104870007B681A687B68DA607B68D9687B681B6C28
:104880001A46386801F050FA00BF0837BD4680BDAF
:1048900080B584B000AF786000F0B6FF7B6893F815
:1048A0004530FB7311E07B685B6A002B12D07B689C
:1048B00024331846FFF75EF90346002B01D0FFF7BB
:1048C00037FAFB7B013BDBB2FB7397F90F30002B10
:1048D000E9DC00E000BF7B68FF2283F8452000F0A0
:1048E000C3FF00F091FF7B6893F84430BB7311E085
:1048F0007B681B69002B12D07B6810331846FFF7CA
:1049000039F90346002B01D0FFF712FABB7B013BBC
:10491000DBB2BB7397F90E30002BE9DC00E000BF7F
:104920007B68FF2283F8442000F09EFF00BF103711
:10493000BD4680BD80B584B000AF786000F064FFF4
:104940007B689B6B002B02D10123FB6001E00023FD
:10495000FB6000F089FFFB6818461037BD4680BD3C
:1049600080B584B000AF786000F04EFF7B689A6B32
:104970007B68DB6B9A4202D10123FB6001E00023DC
:10498000FB6000F071FFFB6818461037BD4680BD24
:1049900080B485B000AF786039600023FB6014E01C
:1049A0000F4AFB6852F83330002B0BD10C49FB68DF
:1049B0003A6841F833200A4AFB68DB0013447A68FE
:1049C0005A6006E0FB680133FB60FB68072BE7D900
:1049D00000BF00BF1437BD465DF8047B704700BFC1
:1049E0004024002080B586B000AFF860B9607A60DE
:1049F000FB687B6100F008FF7B6993F844305BB291
:104A0000B3F1FF3F03D17B69002283F844207B6927
:104A100093F845305BB2B3F1FF3F03D17B690022CD
:104A200083F8452000F020FF7B699B6B002B06D1AB
:104A30007B6924337A68B9681846FFF76FF878699C
:104A4000FFF726FF00BF1837BD4680BD80B483B096
:104A500000AF78607B6803F108027B685A607B686E
:104A60004FF0FF329A607B6803F108027B68DA60DE
:104A70007B6803F108027B681A617B6800221A6078
:104A800000BF0C37BD465DF8047B704780B483B02F
:104A900000AF78607B6800221A6100BF0C37BD460A
:104AA0005DF8047B704780B485B000AF78603960F2
:104AB0007B685B68FB603B68FA685A60FB689A68D1
:104AC0003B689A60FB689B683A685A60FB683A6882
:104AD0009A603B687A681A617B681B685A1C7B681D
:104AE0001A6000BF1437BD465DF8047B704780B480
:104AF00085B000AF786039603B681B68BB60BB68FD
:104B0000B3F1FF3F03D17B681B69FB600CE07B685E
:104B10000833FB6002E0FB685B68FB60FB685B6876
:104B20001B68BA689A42F6D2FB685A683B685A60BA
:104B30003B685B683A689A603B68FA689A60FB6811
:104B40003A685A603B687A681A617B681B685A1C2D
:104B50007B681A6000BF1437BD465DF8047B704760
:104B600080B485B000AF78607B681B69FB607B68B0
:104B70005B687A6892689A607B689B687A6852681A
:104B80005A60FB685B687A689A4203D17B689A68CE
:104B9000FB685A607B6800221A61FB681B685A1E1A
:104BA000FB681A60FB681B6818461437BD465DF841
:104BB000047B704780B584B002AF00237B6000F0B7
:104BC000D5FA114B1B68002B0BD0104B019302231D
:104BD000009300234FF480720D490E48FEF7E4FB6A
:104BE00078607B68002B0AD14FF0500383F3118863
:104BF000BFF36F8FBFF34F8F3B6000BFFEE77B6853
:104C000018460837BD4680BD6403002068030020B5
:104C1000208B00084D4D000880B58AB000AFF860C9
:104C2000B9607A603B6000237B62FB68002B0AD18D
:104C30004FF0500383F31188BFF36F8FBFF34F8F93
:104C40003B6200BFFEE71A4B1B68002B2AD0BB68F3
:104C50007B617B68BB61FB68FB61BB68052B18DC73
:104C6000FFF724F90346022B09D1114B186807F10D
:104C7000140100233A6BFFF7F3FA786212E00C4B51
:104C8000186807F1140100230022FFF7E9FA78629F
:104C900008E0074B186807F1140100233A68FFF792
:104CA000DDFB78627B6A18462837BD4680BD00BFB1
:104CB0006403002080B588B002AF78603960224B71
:104CC0001B68DB68DB687B617B6904331846FFF790
:104CD00047FF7B6993F8283003F00403002B22D0B0
:104CE0007B699A697B68D1187B683A68786900F0BB
:104CF000D1F80346002B1FD00023009300237A68CD
:104D000000217869FFF788FF38613B69002B13D1D8
:104D10004FF0500383F31188BFF36F8FBFF34F8FB2
:104D2000FB6000BFFEE77B6993F8283023F00103A6
:104D3000DAB27B6983F828207B691B6A7869984717
:104D400000BF1837BD4680BD5C03002080B584B02D
:104D500000AF786007F10803184600F057F8F860D4
:104D6000BB681946F86800F003F800F0D5F8F1E7E1
:104D700080B584B000AF78603960FEF7DDFC07F1E4
:104D80000803184600F066F8F860BB68002B30D1C5
:104D90003B68002B0AD17A68FB689A4206D8FEF776
:104DA000D9FCF9687868FFF785FF24E03B68002BA1
:104DB00008D0134B1B681B68002B01D1012300E0B6
:104DC00000233B600F4B18687A68FB68D31A3A6877
:104DD0001946FFF707FEFEF7BDFC0346002B0AD17C
:104DE000094B4FF080521A60BFF34F8FBFF36F8FA4
:104DF00001E0FEF7AFFC00BF1037BD4680BD00BF2D
:104E0000600300206403002004ED00E080B485B05E
:104E100000AF78600E4B1B681B68002B01D101228C
:104E200000E000227B681A607B681B68002B05D1BC
:104E3000074B1B68DB681B68FB6001E00023FB601D
:104E4000FB6818461437BD465DF8047B704700BF09
:104E50005C03002080B584B000AF7860FEF716FDDB
:104E6000F8600B4B1B68FA689A4205D200F01AF9F9
:104E70007B6801221A6002E07B6800221A60044A03
:104E8000FB681360FB6818461037BD4680BD00BF45
:104E90006C03002080B586B000AFF860B9607A601E
:104EA0003B6000237B61FB68BA685A60FB68FA6864
:104EB0001A61BA687B689A4212D87A683B68D21A3B
:104EC000FB689B699A4202D301237B611BE0104B74
:104ED0001A68FB68043319461046FFF708FE12E013
:104EE0007A683B689A4206D2BA683B689A4202D313
:104EF00001237B6107E0074B1A68FB6804331946FE
:104F00001046FFF7F4FD7B6918461837BD4680BD93
:104F1000600300205C03002080B58CB002AFAEE0DF
:104F2000BB68002BC0F2AA803B697B627B6A5B692D
:104F3000002B04D07B6A04331846FFF711FE3B1D9B
:104F40001846FFF787FF3862BB68092B00F297808D
:104F500001A252F823F000BF814F0008814F0008E2
:104F6000814F0008F54F0008095000085350000811
:104F7000814F0008814F0008F54F000809500008D4
:104F80007B6A93F8283043F00103DAB27B6A83F836
:104F90002820FA687B6A9B69D118FB683A6A786AAC
:104FA000FFF778FF0346002B69D07B6A1B6A786A9B
:104FB00098477B6A93F8283003F00403002B5ED0F7
:104FC000FA687B6A9B691A4400230093002300213E
:104FD000786AFFF721FEF861FB69002B4FD14FF093
:104FE000500383F31188BFF36F8FBFF34F8FBB6103
:104FF00000BFFEE77B6A93F8283023F00103DAB2A2
:105000007B6A83F828203AE07B6A93F8283043F0E3
:105010000103DAB27B6A83F82820FA687B6A9A6116
:105020007B6A9B69002B0AD14FF0500383F31188F0
:10503000BFF36F8FBFF34F8F7B6100BFFEE77B6ACB
:105040009A693B6AD1183B6A3A6A786AFFF722FF8D
:1050500015E07B6A93F8283003F00203002B03D19C
:10506000786A00F085F90AE07B6A93F8283023F02B
:105070000103DAB27B6A83F8282000E000BF084B06
:105080001B6807F1080100221846FFF791FA034652
:10509000002B7FF445AF00BF00BF2837BD4680BD61
:1050A0006403002080B588B002AF48E02D4B1B6838
:1050B000DB681B683B612B4B1B68DB68DB68FB60B4
:1050C000FB6804331846FFF74BFDFB681B6AF86862
:1050D0009847FB6893F8283003F00403002B2ED088
:1050E000FB689B693A691344BB60BA683B699A42A2
:1050F0000ED9FB68BA685A60FB68FA681A61194BE6
:105100001A68FB68043319461046FFF7F0FC16E0F6
:105110000023009300233A690021F868FFF77CFD23
:1051200078607B68002B0AD14FF0500383F311881D
:10513000BFF36F8FBFF34F8F3B6000BFFEE7094B9C
:105140001B681B68002BB1D1064B1B687B61064BAB
:105150001B68044A1360044A7B69136000BF183758
:10516000BD4680BD5C0300206003002080B500AF19
:1051700000F04AFB124B1B68002B1DD11148FFF7B2
:1051800065FC1148FFF762FC104B0E4A1A60104B89
:105190000D4A1A6000220C210A20FEF7EDFF03469B
:1051A000074A1360064B1B68002B05D0044B1B6895
:1051B00008491846FFF7ECFB00F056FB00BF80BD26
:1051C0006403002034030020480300205C03002017
:1051D00060030020288B000880B58AB000AF78609B
:1051E0000023FB61FEF7A8FA5B4B1B68002B01D183
:1051F00000F020F9594B1A687B681340002B40F0EF
:1052000093807B68002B1DD008227B6813447B6051
:105210007B6803F00703002B14D07B6823F007039F
:1052200008337B607B6803F00703002B0AD04FF044
:10523000500383F31188BFF36F8FBFF34F8F7B61F0
:1052400000BFFEE77B68002B6ED0454B1B687A6879
:105250009A4269D8434B3B62424B1B687B6204E035
:105260007B6A3B627B6A1B687B627B6A5B687A68ED
:105270009A4203D97B6A1B68002BF1D1364B1B681D
:105280007A6A9A4250D03B6A1B6808221344FB6139
:105290007B6A1A683B6A1A607B6A5A687B68D21A12
:1052A00008235B009A421FD97A6A7B681344BB616A
:1052B000BB6903F00703002B0AD04FF0500383F3C0
:1052C0001188BFF36F8FBFF34F8F3B6100BFFEE7C5
:1052D0007B6A5A687B68D21ABB695A607B6A7A68B3
:1052E0005A60B86900F008F91D4B1A687B6A5B6860
:1052F000D31A1B4A13601A4B1A681B4B1B689A423D
:1053000003D2174B1B68184A13607B6A5A68134B09
:105310001B681A437B6A5A607B6A00221A60134B2F
:105320001B680133114A1360FEF714FAFB6903F09E
:105330000703002B0AD04FF0500383F31188BFF30B
:105340006F8FBFF34F8FFB6000BFFEE7FB6918460E
:105350002837BD4680BD00BF782300208C23002065
:105360007C23002070230020802300208423002041
:1053700080B586B000AF78607B687B617B68002B6E
:105380004DD008235B427A6913447B617B693B61A2
:105390003B695A68244B1B681340002B0AD14FF01D
:1053A000500383F31188BFF36F8FBFF34F8FFB6000
:1053B00000BFFEE73B691B68002B0AD04FF050038B
:1053C00083F31188BFF36F8FBFF34F8FBB6000BFB4
:1053D000FEE73B695A68144B1B681340002B1ED034
:1053E0003B691B68002B1AD13B695A680E4B1B683E
:1053F000DB431A403B695A60FEF79EF93B695A68E5
:105400000A4B1B681344094A1360386900F074F8AA
:10541000074B1B680133064A1360FEF79BF900BF78
:105420001837BD4680BD00BF8C2300207C230020A0
:105430008823002080B485B000AF4FF40053BB60D8
:10544000274BFB60FB6803F00703002B0CD0FB68C5
:105450000733FB60FB6823F00703FB60BA68FB6857
:10546000D31A1F4A1344BB60FB687B601D4A7B68EC
:1054700013601C4B00225A607B68BA681344FB60BF
:105480000822FB689B1AFB60FB6823F00703FB60A4
:10549000FB68154A1360144B1B6800225A60124BBC
:1054A0001B6800221A607B683B603B68FA68D21A6E
:1054B0003B685A600C4B1A683B681A603B685B6833
:1054C0000A4A13603B685B68094A1360094B4FF056
:1054D00000421A6000BF1437BD465DF8047B704778
:1054E00070030020702300207823002080230020F8
:1054F0007C2300208C23002080B485B000AF78602E
:10550000284BFB6002E0FB681B68FB60FB681B68C4
:105510007A689A42F7D8FB68BB60FB685B68BA6838
:1055200013447A689A4208D1FB685A687B685B68C2
:105530001A44FB685A60FB687B607B68BB607B68D1
:105540005B68BA681A44FB681B689A4218D1FB680A
:105550001A68154B1B689A420DD07B685A68FB6825
:105560001B685B681A447B685A60FB681B681A6892
:105570007B681A6008E00C4B1A687B681A6003E0CD
:10558000FB681A687B681A60FA687B689A4202D0E6
:10559000FB687A681A6000BF1437BD465DF8047B6B
:1055A000704700BF702300207823002080B485B0AE
:1055B00000AFF860B9607A60FB68043BFB60FB6891
:1055C0004FF080721A60FB68043BFB60BB6823F0FD
:1055D0000102FB681A60FB68043BFB600C4AFB6835
:1055E0001A60FB68143BFB607A68FB681A60FB6812
:1055F000043BFB60FB686FF002021A60FB68203B13
:10560000FB60FB6818461437BD465DF8047B7047A5
:105610001556000880B485B000AF00237B60124BA4
:105620001B68B3F1FF3F0AD04FF0500383F311889A
:10563000BFF36F8FBFF34F8FFB6000BFFEE74FF0EC
:10564000500383F31188BFF36F8FBFF34F8FBB609D
:1056500000BF00BF7B68002BFCD000BF00BF143729
:10566000BD465DF8047B7047080000200000000084
:10567000074B19680868B0E8F04F80F30988BFF35A
:105680006F8F4FF0000080F311887047AFF30080F8
:105690000802002000BF00BF08480068006880F3CF
:1056A00008884FF0000080F3148862B661B6BFF33B
:1056B0004F8FBFF36F8F00DF00BF000008ED00E0E9
:1056C00000BF00BF80B586B000AF464B1B68464A9E
:1056D00093420AD14FF0500383F31188BFF36F8FC9
:1056E000BFF34F8F3B6100BFFEE73E4B1B683F4A55
:1056F00093420AD14FF0500383F31188BFF36F8FA9
:10570000BFF34F8FFB6000BFFEE7394B7B617B69C6
:105710001B78DBB27B607B69FF221A707B691B7888
:10572000DBB2FB70FB78DBB203F05003DAB2314B33
:105730001A70314B07221A6009E02F4B1B68013B9E
:105740002D4A1360FB78DBB25B00DBB2FB70FB78A9
:10575000DBB203F08003802BEFD0274B1B68C3F133
:105760000703042B0AD04FF0500383F31188BFF3D3
:105770006F8FBFF34F8FBB6000BFFEE71E4B1B68F0
:105780001B021D4A13601C4B1B6803F4E0631A4A9A
:1057900013607B68DAB27B691A70184B1B68174A72
:1057A00043F470031360154B1B68144A43F07043B5
:1057B000136000F0DBF8124B00221A6000F0FAF8D8
:1057C000104B1B680F4A43F040431360FFF764FF20
:1057D000FEF724F9FFF71EFF002318461837BD46D1
:1057E00080BD00BF00ED00E071C20F4170C20F41EB
:1057F00000E400E0902300209423002020ED00E04E
:105800000800002034EF00E080B483B000AF4FF018
:10581000500383F31188BFF36F8FBFF34F8F7B600B
:1058200000BF0F4B1B6801330D4A13600C4B1B6804
:10583000012B0FD10B4B1B68DBB2002B0AD04FF0B2
:10584000500383F31188BFF36F8FBFF34F8F3B601B
:1058500000BFFEE700BF0C37BD465DF8047B704714
:105860000800002004ED00E080B483B000AF124BCC
:105870001B68002B0AD14FF0500383F31188BFF34C
:105880006F8FBFF34F8F7B6000BFFEE70A4B1B6833
:10589000013B094A1360084B1B68002B05D100230C
:1058A0003B603B6883F3118800BF00BF0C37BD46E7
:1058B0005DF8047B704700BF080000200000000076
:1058C000EFF30980BFF36F8F154B1A681EF0100FAE
:1058D00008BF20ED108A20E9F04F10602DE9090083
:1058E0004FF0500080F31188BFF34F8FBFF36F8FDD
:1058F000FEF794F84FF0000080F3118809BC196896
:105900000868B0E8F04F1EF0100F08BFB0EC108A26
:1059100080F30988BFF36F8F704700BFAFF300803B
:105920000802002000BF00BF80B582B000AF4FF07A
:10593000500383F31188BFF36F8FBFF34F8F7B60EA
:1059400000BFFDF7B3FF0346002B03D0064B4FF01B
:1059500080521A6000233B603B6883F3118800BFCC
:1059600000BF0837BD4680BD04ED00E080B400AF45
:105970000B4B00221A600B4B00221A600A4B1B686B
:105980000A4AA2FB03239B09094A013B1360044B0B
:1059900007221A6000BFBD465DF8047B704700BF58
:1059A00010E000E018E000E018000020D34D621085
:1059B00014E000E0DFF80C00016841F470010160C0
:1059C0007047000088ED00E000BF00BF80B485B0E4
:1059D00000AFEFF30583FB60FB680F2B14D9174A68
:1059E000FB6813441B78FB72154B1B78FA7A9A42BA
:1059F0000AD24FF0500383F31188BFF36F8FBFF3C8
:105A00004F8F7B6000BFFEE70E4B1B6803F4E06224
:105A10000D4B1B689A420AD94FF0500383F311884B
:105A2000BFF36F8FBFF34F8F3B6000BFFEE700BF38
:105A30001437BD465DF8047B704700BFF0E300E01B
:105A4000902300200CED00E09423002080B5A2B04C
:105A500000AF78600A4B09221321122000F08CF865
:105A600007F108030749184600F0DEFD07F10803B7
:105A7000184600F03DF86420FDF7DCFDEAE700BFC2
:105A80000C000020308B000880B5A4B002AFFDF7F9
:105A900037FB00F04DF800F05DF83B461149184621
:105AA00000F0C2FD3B46184600F022F800230193A7
:105AB00001230093002380220B490C48FDF774FC5E
:105AC000C7F88400D7F88430C7F88030D7F8803022
:105AD000012B01D0FDF765FC00F06EF8FDF7DEFD4F
